ENTRY            D7047   20250902                             D150D704700000001 
SUBENT        D7047001   20250902                             D150D704700100001 
BIB                 13         27                                 D704700100002 
TITLE      Measurement of production cross-sections of            D704700100003 
           natTi(p,x)43K,43,44m,44g,46g,47,48Sc,48V reactions     D704700100004 
           up to 50 MeV                                           D704700100005 
AUTHOR     (D.H.Moon, M.H.Jung, Y.S.Hwang, S.C.Yang)              D704700100006 
INSTITUTE  (3KORKAE)                                              D704700100007 
REFERENCE  (J,NET,56,5022,2024)                                   D704700100008 
FACILITY   (LINAC,3KORKAE) 100 MeV linac in Korea Multi-purpose   D704700100009 
            Accelerator Complex (KOMAC)                           D704700100010 
SAMPLE     Natural titanium (Ti)                                  D704700100011 
           - Thickness: 108 micro-meter                           D704700100012 
METHOD     (ACTIV) Irradiation for 22 min                         D704700100013 
           (STTA) Conventional stacked-foil activation technique  D704700100014 
           (GSPEC) Started after the cooling time of 14 h         D704700100015 
DETECTOR   (HPGE)                                                 D704700100016 
MONITOR    (28-NI-0(P,X)28-NI-57,,SIG)                            D704700100017 
            - Ni foil (110 micro-meter thickness)                 D704700100018 
MONIT-REF  (,A.Hermanne+,J,NDS,148,338,2018)                      D704700100019 
ERR-ANALYS (ERR-T) Total uncertainty: 5-25%                       D704700100020 
           (ERR-S,0.7,24.) Gamma-ray counting statistics          D704700100021 
           (ERR-1) Sample thickness                        (<1%)  D704700100022 
           (ERR-2) Beam flux                               (<6%)  D704700100023 
           (ERR-3) Detection efficiency                  (<1.3%)  D704700100024 
           (ERR-4) gamma-ray intensity                     (<4%)  D704700100025 
           (ERR-5) half-life                               (<1%)  D704700100026 
STATUS     (TABLE,,D.H.Moon+,J,NET,56,5022,2024) Table 2          D704700100027 
           (APRVD) Approved by S.C.Yang (2025-09-03)              D704700100028 
HISTORY    (20250902C) D.H.Moon                                   D704700100029 
ENDBIB              27          0                                 D704700100030 
COMMON               5          3                                 D704700100031 
ERR-1      ERR-2      ERR-3      ERR-4      ERR-5                 D704700100032 
PER-CENT   PER-CENT   PER-CENT   PER-CENT   PER-CENT              D704700100033 
1.         6.         1.3        4.         1.                    D704700100034 
ENDCOMMON            3          0                                 D704700100035 
ENDSUBENT           34          0                                 D704700199999 
SUBENT        D7047002   20250902                             D150D704700200001 
BIB                  2          2                                 D704700200002 
REACTION   (22-TI-0(P,X)19-K-43,,SIG)                             D704700200003 
DECAY-DATA (19-K-43,22.3HR,DG,617.490,0.792)                      D704700200004 
ENDBIB               2          0                                 D704700200005 
NOCOMMON             0          0                                 D704700200006 
DATA                 4          6                                 D704700200007 
EN         EN-ERR     DATA       ERR-T                            D704700200008 
MEV        MEV        MB         MB                               D704700200009 
50.9       0.2        1.00       0.12                             D704700200010 
50.5       0.2        1.11       0.11                             D704700200011 
47.9       0.3        0.73       0.11                             D704700200012 
47.4       0.3        0.77       0.10                             D704700200013 
44.7       0.3        0.42       0.08                             D704700200014 
44.2       0.3        0.31       0.09                             D704700200015 
ENDDATA              8          0                                 D704700200016 
ENDSUBENT           15          0                                 D704700299999 
SUBENT        D7047003   20250902                             D150D704700300001 
BIB                  2          2                                 D704700300002 
REACTION   (22-TI-0(P,X)21-SC-43,CUM,SIG)                         D704700300003 
DECAY-DATA (21-SC-43,3.891HR,DG,372.9,0.225)                      D704700300004 
ENDBIB               2          0                                 D704700300005 
NOCOMMON             0          0                                 D704700300006 
DATA                 4         18                                 D704700300007 
EN         EN-ERR     DATA       ERR-T                            D704700300008 
MEV        MEV        MB         MB                               D704700300009 
50.9       0.2        10.94      1.14                             D704700300010 
50.5       0.2        10.65      1.15                             D704700300011 
47.9       0.3        10.32      1.08                             D704700300012 
47.4       0.3        12.01      1.17                             D704700300013 
44.7       0.3        12.36      1.08                             D704700300014 
44.2       0.3        12.50      1.05                             D704700300015 
41.2       0.4        12.72      1.02                             D704700300016 
40.7       0.4        11.94      1.00                             D704700300017 
37.5       0.5        9.03       1.12                             D704700300018 
37.0       0.5        7.76       1.11                             D704700300019 
33.6       0.5        2.65       0.66                             D704700300020 
33.1       0.5        2.95       0.62                             D704700300021 
29.3       0.6        2.92       0.63                             D704700300022 
28.7       0.6        3.51       0.64                             D704700300023 
24.3       0.7        2.84       0.53                             D704700300024 
23.6       0.7        2.48       0.51                             D704700300025 
19.6       1.0        3.14       0.48                             D704700300026 
18.7       1.0        3.83       0.50                             D704700300027 
ENDDATA             20          0                                 D704700300028 
ENDSUBENT           27          0                                 D704700399999 
SUBENT        D7047004   20250902                             D150D704700400001 
BIB                  2          2                                 D704700400002 
REACTION   (22-TI-0(P,X)21-SC-44-M,,SIG)                          D704700400003 
DECAY-DATA (21-SC-44-M,58.61HR,DG,271.251,0.8672)                 D704700400004 
ENDBIB               2          0                                 D704700400005 
NOCOMMON             0          0                                 D704700400006 
DATA                 4         20                                 D704700400007 
EN         EN-ERR     DATA       ERR-T                            D704700400008 
MEV        MEV        MB         MB                               D704700400009 
50.9       0.2        10.51      0.61                             D704700400010 
50.5       0.2        11.02      0.62                             D704700400011 
47.9       0.3        10.92      0.61                             D704700400012 
47.4       0.3        10.69      0.61                             D704700400013 
44.7       0.3        10.75      0.60                             D704700400014 
44.2       0.3        11.00      0.60                             D704700400015 
41.2       0.4        12.11      0.65                             D704700400016 
40.7       0.4        12.69      0.67                             D704700400017 
37.5       0.5        13.92      0.73                             D704700400018 
37.0       0.5        14.79      0.76                             D704700400019 
33.6       0.5        16.62      0.81                             D704700400020 
33.1       0.5        15.89      0.77                             D704700400021 
29.3       0.6        12.98      0.64                             D704700400022 
28.7       0.6        12.71      0.63                             D704700400023 
24.3       0.7        6.65       0.35                             D704700400024 
23.6       0.7        4.67       0.28                             D704700400025 
19.6       1.0        1.37       0.15                             D704700400026 
18.7       1.0        1.26       0.15                             D704700400027 
13.8       1.2        0.41       0.12                             D704700400028 
12.5       1.2        0.40       0.10                             D704700400029 
ENDDATA             22          0                                 D704700400030 
ENDSUBENT           29          0                                 D704700499999 
SUBENT        D7047005   20250902                             D150D704700500001 
BIB                  2          2                                 D704700500002 
REACTION   (22-TI-0(P,X)21-SC-44-G,(M),SIG)                       D704700500003 
DECAY-DATA (21-SC-44-G,4.0420HR,DG,1157.022,0.998867)             D704700500004 
ENDBIB               2          0                                 D704700500005 
NOCOMMON             0          0                                 D704700500006 
DATA                 4         20                                 D704700500007 
EN         EN-ERR     DATA       ERR-T                            D704700500008 
MEV        MEV        MB         MB                               D704700500009 
50.9       0.2        17.82      1.25                             D704700500010 
50.5       0.2        18.21      1.29                             D704700500011 
47.9       0.3        17.37      1.26                             D704700500012 
47.4       0.3        18.37      1.30                             D704700500013 
44.7       0.3        18.40      1.31                             D704700500014 
44.2       0.3        18.38      1.33                             D704700500015 
41.2       0.4        22.87      1.58                             D704700500016 
40.7       0.4        22.16      1.58                             D704700500017 
37.5       0.5        27.84      1.88                             D704700500018 
37.0       0.5        26.44      1.86                             D704700500019 
33.6       0.5        34.57      2.26                             D704700500020 
33.1       0.5        34.92      2.26                             D704700500021 
29.3       0.6        33.27      2.09                             D704700500022 
28.7       0.6        33.03      2.09                             D704700500023 
24.3       0.7        16.96      1.12                             D704700500024 
23.6       0.7        12.20      0.83                             D704700500025 
19.6       1.0        3.53       0.30                             D704700500026 
18.7       1.0        4.05       0.33                             D704700500027 
13.8       1.2        2.34       0.24                             D704700500028 
12.5       1.2        2.20       0.23                             D704700500029 
ENDDATA             22          0                                 D704700500030 
ENDSUBENT           29          0                                 D704700599999 
SUBENT        D7047006   20250902                             D150D704700600001 
BIB                  2          2                                 D704700600002 
REACTION   (22-TI-0(P,X)21-SC-46,,SIG)                            D704700600003 
DECAY-DATA (21-SC-46-G,83.79D,DG,889.277,0.999840)                D704700600004 
ENDBIB               2          0                                 D704700600005 
NOCOMMON             0          0                                 D704700600006 
DATA                 4         20                                 D704700600007 
EN         EN-ERR     DATA       ERR-T                            D704700600008 
MEV        MEV        MB         MB                               D704700600009 
50.9       0.2        57.53      2.61                             D704700600010 
50.5       0.2        57.42      2.61                             D704700600011 
47.9       0.3        58.75      2.67                             D704700600012 
47.4       0.3        64.02      2.90                             D704700600013 
44.7       0.3        60.85      2.76                             D704700600014 
44.2       0.3        60.58      2.75                             D704700600015 
41.2       0.4        59.75      2.71                             D704700600016 
40.7       0.4        58.70      2.66                             D704700600017 
37.5       0.5        46.41      2.09                             D704700600018 
37.0       0.5        43.83      1.97                             D704700600019 
33.6       0.5        28.32      1.28                             D704700600020 
33.1       0.5        24.83      1.12                             D704700600021 
29.3       0.6        11.99      0.55                             D704700600022 
28.7       0.6        11.60      0.53                             D704700600023 
24.3       0.7        7.78       0.37                             D704700600024 
23.6       0.7        7.00       0.33                             D704700600025 
19.6       1.0        4.38       0.23                             D704700600026 
18.7       1.0        4.01       0.22                             D704700600027 
13.8       1.2        1.39       0.13                             D704700600028 
12.5       1.2        1.04       0.12                             D704700600029 
ENDDATA             22          0                                 D704700600030 
ENDSUBENT           29          0                                 D704700699999 
SUBENT        D7047007   20250902                             D150D704700700001 
BIB                  2          2                                 D704700700002 
REACTION   (22-TI-0(P,X)21-SC-47,,SIG)                            D704700700003 
DECAY-DATA (21-SC-47,3.3492D,DG,159.381,0.683)                    D704700700004 
ENDBIB               2          0                                 D704700700005 
NOCOMMON             0          0                                 D704700700006 
DATA                 4         20                                 D704700700007 
EN         EN-ERR     DATA       ERR-T                            D704700700008 
MEV        MEV        MB         MB                               D704700700009 
50.9       0.2        17.88      0.94                             D704700700010 
50.5       0.2        18.36      0.96                             D704700700011 
47.9       0.3        18.35      0.96                             D704700700012 
47.4       0.3        18.95      0.98                             D704700700013 
44.7       0.3        17.53      0.91                             D704700700014 
44.2       0.3        17.68      0.92                             D704700700015 
41.2       0.4        18.84      0.97                             D704700700016 
40.7       0.4        18.96      0.97                             D704700700017 
37.5       0.5        21.28      1.07                             D704700700018 
37.0       0.5        20.89      1.05                             D704700700019 
33.6       0.5        24.16      1.16                             D704700700020 
33.1       0.5        23.30      1.11                             D704700700021 
29.3       0.6        21.23      1.02                             D704700700022 
28.7       0.6        20.34      0.98                             D704700700023 
24.3       0.7        13.03      0.64                             D704700700024 
23.6       0.7        11.08      0.55                             D704700700025 
19.6       1.0        5.02       0.29                             D704700700026 
18.7       1.0        3.71       0.24                             D704700700027 
13.8       1.2        0.79       0.15                             D704700700028 
12.5       1.2        0.52       0.13                             D704700700029 
ENDDATA             22          0                                 D704700700030 
ENDSUBENT           29          0                                 D704700799999 
SUBENT        D7047008   20250902                             D150D704700800001 
BIB                  2          2                                 D704700800002 
REACTION   (22-TI-0(P,X)21-SC-48,,SIG)                            D704700800003 
DECAY-DATA (21-SC-48,43.71HR,DG,1037.522,0.975)                   D704700800004 
ENDBIB               2          0                                 D704700800005 
NOCOMMON             0          0                                 D704700800006 
DATA                 4         16                                 D704700800007 
EN         EN-ERR     DATA       ERR-T                            D704700800008 
MEV        MEV        MB         MB                               D704700800009 
50.9       0.2        1.36       0.12                             D704700800010 
50.5       0.2        1.42       0.12                             D704700800011 
47.9       0.3        1.28       0.11                             D704700800012 
47.4       0.3        1.48       0.12                             D704700800013 
44.7       0.3        1.41       0.11                             D704700800014 
44.2       0.3        1.39       0.11                             D704700800015 
41.2       0.4        1.22       0.10                             D704700800016 
40.7       0.4        1.22       0.10                             D704700800017 
37.5       0.5        1.11       0.10                             D704700800018 
37.0       0.5        0.96       0.09                             D704700800019 
33.6       0.5        0.77       0.09                             D704700800020 
33.1       0.5        0.84       0.09                             D704700800021 
29.3       0.6        0.68       0.08                             D704700800022 
28.7       0.6        0.57       0.08                             D704700800023 
24.3       0.7        0.40       0.07                             D704700800024 
23.6       0.7        0.24       0.05                             D704700800025 
ENDDATA             18          0                                 D704700800026 
ENDSUBENT           25          0                                 D704700899999 
SUBENT        D7047009   20250902                             D150D704700900001 
BIB                  2          2                                 D704700900002 
REACTION   (22-TI-0(P,X)23-V-48,,SIG)                             D704700900003 
DECAY-DATA (23-V-48,15.974D,DG,983.525,0.9998)                    D704700900004 
ENDBIB               2          0                                 D704700900005 
NOCOMMON             0          0                                 D704700900006 
DATA                 4         22                                 D704700900007 
EN         EN-ERR     DATA       ERR-T                            D704700900008 
MEV        MEV        MB         MB                               D704700900009 
50.9       0.2        21.63      1.31                             D704700900010 
50.5       0.2        21.85      1.33                             D704700900011 
47.9       0.3        22.26      1.35                             D704700900012 
47.4       0.3        24.39      1.48                             D704700900013 
44.7       0.3        24.25      1.48                             D704700900014 
44.2       0.3        24.97      1.52                             D704700900015 
41.2       0.4        29.03      1.77                             D704700900016 
40.7       0.4        28.87      1.76                             D704700900017 
37.5       0.5        32.72      1.98                             D704700900018 
37.0       0.5        32.57      1.97                             D704700900019 
33.6       0.5        37.38      2.26                             D704700900020 
33.1       0.5        37.99      2.30                             D704700900021 
29.3       0.6        40.31      2.44                             D704700900022 
28.7       0.6        43.34      2.62                             D704700900023 
24.3       0.7        58.89      3.56                             D704700900024 
23.6       0.7        61.02      3.69                             D704700900025 
19.6       1.0        119.41     7.19                             D704700900026 
18.7       1.0        141.52     8.52                             D704700900027 
13.8       1.2        318.81     19.15                            D704700900028 
12.5       1.2        336.66     20.22                            D704700900029 
5.4        1.9        33.73      2.06                             D704700900030 
3.7        1.9        11.95      0.77                             D704700900031 
ENDDATA             24          0                                 D704700900032 
ENDSUBENT           31          0                                 D704700999999 
ENDENTRY             9          0                                 D704799999999 
